:1000000064C07DC07CC07BC07AC079C078C077C036
:1000100076C075C074C073C072C071C070C06FC04C
:100020006EC06DC06CC06BC06AC069C068C067C07C
:1000300066C065C049324320535441525420434F57
:100040004E444954494F4E204552524F5200493276
:100050004320534C4156452041444452455353207C
:100060004552524F5200493243204441544120549A
:1000700058204552524F5200493243204441544186
:10008000205258204552524F520049324320544981
:100090004D454F555400493243204552524F520A64
:1000A0000020545743523D25303278205354415458
:1000B00055533D253032780A0007081314141308ED
:1000C0000700100808080810000011241FBECFEF19
:1000D000D4E0DEBFCDBF11E0A0E0B1E0E2EEF2E19E
:1000E00002C005900D92A034B107D9F711E0A0E449
:1000F000B1E001C01D92A934B107E1F759C280CF28
:10010000CF93DF93CDB7DEB784E98093BC008091B5
:10011000BC00992780719070009709F0F8CF80E0BB
:1001200090E0DF91CF910895CF93DF93CDB7DEB705
:1001300024970FB6F894DEBF0FBECDBF9A83898394
:100140006B834C83DDDF24960FB6F894DEBF0FBEC1
:10015000CDBFDF91CF910895CF93DF93CDB7DEB7B9
:1001600024970FB6F894DEBF0FBECDBF89831092DF
:1001700041011092400184EA8093BC008091BC0050
:1001800088236CF0E0E4F1E0808191819C0101968C
:100190009183808383EC2035380708F4EFCF80917A
:1001A00040019091410123EC8035920728F08FEFB8
:1001B0009FEF9C838B830EC08091B9008A839A81C4
:1001C0008981981729F08EEF9FEF9C838B8302C063
:1001D0001C821B828B819C8124960FB6F894DEBF13
:1001E0000FBECDBFDF91CF910895CF93DF93CDB7F1
:1001F000DEB727970FB6F894DEBF0FBECDBF898359
:100200006A834B83109241011092400189819927A2
:10021000880F991F2A81822B8C838C818093BB004D
:1002200084E88093BC008091BC0088236CF0E0E4FB
:10023000F1E0808191819C0101969183808383EC20
:100240002035380708F4EFCF8091400190914101AB
:1002500023EC8035920728F08FEF9FEF9F838E83EA
:1002600014C08091B9008D838D8199279C01287FCE
:1002700030708B8199272817390729F08EEF9FEF6F
:100280009F838E8302C01F821E828E819F8127964C
:100290000FB6F894DEBF0FBECDBFDF91CF910895AA
:1002A000CF93DF93CDB7DEB725970FB6F894DEBFB7
:1002B0000FBECDBF89836A83109241011092400125
:1002C00089818093BB0084E88093BC008091BC004E
:1002D00088236CF0E0E4F1E0808191819C0101963B
:1002E0009183808383EC2035380708F4EFCF809129
:1002F00040019091410123EC8035920728F08FEF67
:100300009FEF9D838C8314C08091B9008B838B8178
:1003100099279C01287F30708A81992728173907EF
:1003200029F08EEF9FEF9D838C8302C01D821C827B
:100330008C819D8125960FB6F894DEBF0FBECDBF90
:10034000DF91CF910895CF93DF93CDB7DEB7279795
:100350000FB6F894DEBF0FBECDBF9A8389836B833F
:100360004C8310924101109240018B81882321F02F
:1003700084EC8093BC0003C084E88093BC0080912F
:10038000BC0088234CF0809140019091410123EC06
:100390008035920708F4F3CF80914001909141019C
:1003A00023EC8035920728F08FEF9FEF9F838E8399
:1003B00019C08091B9008D838D8199279C01287F78
:1003C00030708C8199272817390729F08FEF9FEF1C
:1003D0009F838E8307C0E981FA818091BB0080836F
:1003E0001F821E828E819F8127960FB6F894DEBFF2
:1003F0000FBECDBFDF91CF910895CF93DF93CDB7DF
:10040000DEB784E88093BC008091BC0088230CF0A8
:10041000FBCF8091BB009927DF91CF910895CF93B7
:10042000DF93CDB7DEB723970FB6F894DEBF0FBECC
:10043000CDBF89837B836A83898124D380E090E068
:1004400023960FB6F894DEBF0FBECDBFDF91CF91DC
:100450000895CF93DF93CDB7DEB724970FB6F89406
:10046000DEBF0FBECDBF9A8389831C821B822B8186
:100470003C8189819A812817390748F480ED97E0FB
:100480000FD08B819C8101969C838B83F0CF249627
:100490000FB6F894DEBF0FBECDBFDF91CF910895A8
:1004A000CF93DF93CDB7DEB722970FB6F894DEBFB8
:1004B0000FBECDBF9A83898389819A81009711F4F9
:1004C00000C006C089819A810197F1F79A838983D8
:1004D00022960FB6F894DEBF0FBECDBFDF91CF914D
:1004E0000895CF93DF93CDB7DEB724970FB6F89476
:1004F000DEBF0FBECDBF89836A838981282F332752
:100500003C832B838B819C818130910519F12B8158
:100510003C81223031052CF48B819C81009739F08D
:100520003EC02B813C812230310539F138C08A81AF
:10053000882341F08EE091E09F938F939AD30F90A0
:100540000F902DC08EE091E09F938F9392D30F90E8
:100550000F9025C08A81882341F088E191E09F9324
:100560008F9387D30F900F901AC08EE091E09F93E6
:100570008F937FD30F900F9012C08A81882341F010
:1005800086E291E09F938F9374D30F900F9007C0F2
:100590008EE091E09F938F936CD30F900F902496F1
:1005A0000FB6F894DEBF0FBECDBFDF91CF91089597
:1005B000CDEFD4E0DEBFCDBF80916600E82FFF27EE
:1005C000C89501BE8CE0F3D280E091E090934601A3
:1005D0008093450145D21092B90080E28093B80023
:1005E00086E2898380E1B8DD8A8348E160E0898121
:1005F000FCDD8A8368E282E053DE8A8380E1ACDD41
:100600008A8340E461E08981F0DD8A83F6DE8093AD
:10061000420176DD8091420199279F938F9381E378
:1006200091E09F938F9325D30F900F900F900F9091
:1006300082E390E00EDF14D2D3CFCF93DF93CDB718
:10064000DEB780912B00806280932B0000C08091E8
:100650002B008F7D80932B00DF91CF910895CF9356
:10066000DF93CDB7DEB723970FB6F894DEBF0FBE8A
:10067000CDBF89836A838A81882331F080912B00E2
:10068000806480932B0005C080912B008F7B80932A
:100690002B0080912B008F7E80932B0080912A006D
:1006A000886080932A0080912A00846080932A00C9
:1006B00080912A00826080932A0080912A008160C4
:1006C00080932A0080912B008E7F80932B00809155
:1006D0002B008D7F80932B0080912B008B7F80934C
:1006E0002B0080912B00877F80932B0089818823AA
:1006F0002CF480912B00816080932B0089819927B5
:1007000080749070009729F080912B008260809314
:100710002B008981992780729070009729F0809131
:100720002B00846080932B008981992780719070C1
:10073000009729F080912B00886080932B007DDF4B
:1007400080912B008E7F80932B0080912B008D7FDA
:1007500080932B0080912B008B7F80932B008091C6
:100760002B00877F80932B00898199278870907058
:10077000009729F080912B00816080932B00898164
:10078000992784709070009729F080912B008260E7
:1007900080932B008981992782709070009729F0AF
:1007A00080912B00846080932B0089819927817030
:1007B0009070009729F080912B00886080932B0027
:1007C0003CDF80912B00886080932B0080912B0070
:1007D000846080932B0080912B00826080932B009B
:1007E00080912B00816080932B0023960FB6F894A4
:1007F000DEBF0FBECDBFDF91CF910895CF93DF93C2
:10080000CDB7DEB722970FB6F894DEBF0FBECDBFCF
:1008100089838981882331F080912B0080648093C3
:100820002B0005C080912B008F7B80932B00809143
:100830002B00806180932B0080912A00877F80931A
:100840002A0080912A008B7F80932A0080912A00C1
:100850008D7F80932A0080912A008E7F80932A00CA
:1008600080912B00806280932B0000C01A828091BF
:100870002900992788709070009719F08A8180610B
:100880008A8380912900992784709070009719F0CD
:100890008A8180628A838091290099278270907072
:1008A000009719F08A8180648A83809129009927B2
:1008B00081709070009719F08A8180688A83809196
:1008C0002B008F7D80932B0000C080912B008062D5
:1008D00080932B0000C08091290099278870907028
:1008E000009719F08A8181608A8380912900992775
:1008F00084709070009719F08A8182608A83809159
:100900002900992782709070009719F08A8184607D
:100910008A8380912900992781709070009719F03F
:100920008A8188608A8380912B008F7D80932B0041
:100930008A81992722960FB6F894DEBF0FBECDBFED
:10094000DF91CF910895CF93DF93CDB7DEB780E0ED
:1009500055DF88230CF4FBCF84E090E006D080E0E4
:100960004DDF9927DF91CF910895CF93DF93CDB7D6
:10097000DEB722970FB6F894DEBF0FBECDBF9A83C5
:10098000898389819A81009711F400C006C089810A
:100990009A810197F1F79A83898322960FB6F8948A
:1009A000DEBF0FBECDBFDF91CF910895CF93DF9310
:1009B000CDB7DEB721970FB6F894DEBF0FBECDBF1F
:1009C0008983C1DF60E089814ADE21960FB6F89401
:1009D000DEBF0FBECDBFDF91CF910895CF93DF93E0
:1009E000CDB7DEB721970FB6F894DEBF0FBECDBFEF
:1009F0008983A9DF61E0898132DE21960FB6F89400
:100A0000DEBF0FBECDBFDF91CF910895CF93DF93AF
:100A1000CDB7DEB722970FB6F894DEBF0FBECDBFBD
:100A200089836A838A81882329F480E89981890FE0
:100A3000BDDF04C080EC9981890FB8DF22960FB624
:100A4000F894DEBF0FBECDBFDF91CF910895CF9355
:100A5000DF93CDB7DEB777DF9927DF91CF91089588
:100A6000CF93DF93CDB7DEB781E0A0DFDF91CF91E9
:100A70000895CF93DF93CDB7DEB782E097DFDF91A4
:100A8000CF910895CF93DF93CDB7DEB722970FB6FE
:100A9000F894DEBF0FBECDBF898355DF8A8389817D
:100AA0008A3019F48A811BD011C08A81843121F4E3
:100AB00060E080ECD4DD06C08A81843519F460E002
:100AC00080E8CDDD40DF61E08981C9DD22960FB687
:100AD000F894DEBF0FBECDBFDF91CF910895CF93C5
:100AE000DF93CDB7DEB722970FB6F894DEBF0FBE07
:100AF000CDBF89838981803418F480E48A8301C062
:100B00001A8280E89A81890F51DF22960FB6F894F5
:100B1000DEBF0FBECDBFDF91CF910895CF93DF939E
:100B2000CDB7DEB723970FB6F894DEBF0FBECDBFAB
:100B30009A838983E981FA8180813196FA83E983F6
:100B40008B83882319F08B819DDFF4CF23960FB61A
:100B5000F894DEBF0FBECDBFDF91CF910895CF9344
:100B6000DF93CDB7DEB726970FB6F894DEBF0FBE82
:100B7000CDBF9A83898389819A819C0101969A834A
:100B800089833C832B83EB81FC8184918D838D81D0
:100B90008E83882319F08E8175DFEDCF26960FB6F0
:100BA000F894DEBF0FBECDBFDF91CF910895CF93F4
:100BB000DF93CDB7DEB721970FB6F894DEBF0FBE37
:100BC000CDBF898380912A00806480932A00809120
:100BD0002A00806180932A0080912A00806280939D
:100BE0002A0080912A00886080932A0080912A0040
:100BF000846080932A0080912A00826080932A007A
:100C000080912A00816080932A0080E09DE7ADDE1C
:100C100080912B00846080932B0080912B00886052
:100C200080932B000ADD80E097E29FDE06DD80E8FE
:100C300090E09BDE02DD80E890E097DE80912B0063
:100C4000877F80932B00F9DC80E890E08EDE88E2DD
:100C5000ADDE88E0ABDE04DF86E0A8DE8981A6DEBB
:100C600021960FB6F894DEBF0FBECDBFDF91CF91B6
:100C70000895A0E0B0E0EEE3F6E00CC3E5E0F0E0BC
:100C8000EC0FFD1F81919191AF01BC018091450155
:100C90009091460102D0E2E019C3A2E1B0E0E2E5A2
:100CA000F6E0E8C2EE24FF2487011C017E876D87F1
:100CB0002A01CC24DD24FC01D782C682838181FDF8
:100CC00055C28FEF9FEF65C28D859E8501969E87E9
:100CD0008D87C0FE39C28F8580538A30D0F49F85BE
:100CE000903339F4662029F4C3FC03C0E0E0F1E05E
:100CF0008DC08AE0689E602C1124FF856F0E20ED68
:100D0000620E67FE02C05FE7652EC3FC2FC2762C21
:100D10002DC2C3FE04C0662011F441E0642EEF85AD
:100D20008E2F992787FD9095883691058CF585360D
:100D300091050CF06EC08335910509F492C084359D
:100D40009105CCF48B32910509F449C08C329105A0
:100D50004CF48032910509F446C08332910509F4C0
:100D60004AC0EDC18D32910509F440C08E32910523
:100D700009F444C0E4C18336910509F450C08436B7
:100D800091050CF087C08835910509F4B9C0D7C129
:100D90008037910509F4AEC08137910584F48C3613
:100DA000910591F18D3691052CF48936910509F460
:100DB00071C0C5C18F36910509F499C0C0C185378E
:100DC000910509F49FC08637910524F48337910576
:100DD00071F1B5C18837910509F492C0B0C180E1C5
:100DE00090E0C82AD92AE0E2F0E010C080E890E064
:100DF000C82AD92ABBC1E0E4F0E008C088E090E04E
:100E0000C82AD92A6624B2C1E4E0F0E0CE2ADF2A5B
:100E1000ADC13FE3E32E7A94F3E6FF8731C1F201DF
:100E200082E090E0480E591EE0807A9429C1F201D8
:100E300082E090E0480E591EA081B1817D01C3FE81
:100E400008C0862D992787FD9095BC01CD01B8D1AA
:100E50001DC0FD0101900020E9F73197EA1BE88BE6
:100E600016C0F20182E090E0480E591E0190F08118
:100E7000E02D7F01C3FE08C0862D992787FD909540
:100E8000BC01CF0192D102C0CF0186D1888B988955
:100E9000791AF6C0C2FE0AC0F20184E090E0480E62
:100EA000591E20813181428153810CC0F20182E0C0
:100EB00090E0480E591E808191819C01442737FDA6
:100EC0004095542F79018A0157FF0CC0E2E0F0E011
:100ED000CE2ADF2A10950095F094E094E11CF11CD5
:100EE000011D111D8FEB9FEFC822D92227C098E06A
:100EF000988B08C0E0E4F0E0CE2ADF2AF8E7FF870D
:100F000020E1288BC2FE0AC0F20184E090E0480E86
:100F1000591E20813181428153810AC0F20182E051
:100F200090E0480E591E808191819C0144275527ED
:100F300079018A01EFECFFEFCE22DF22CE0101968C
:100F40009A8B898B9889892E9924AA24BB24C8015D
:100F5000B701A50194016CD1DC01CB01E989FA89C3
:100F600080838A3024F0FF858F0F815201C0805D1D
:100F7000E989FA898193FA8BE98BC801B701A50148
:100F8000940156D179018A01211531054105510598
:100F9000F1F6E98881E090E08C0F9D1FE81AC60108
:100FA00082739070892B09F07A94C6FE0DC0872D4C
:100FB000992787FD9095E889E03121F42EEF722E74
:100FC000780E02C0782E7A94C3FE0FC0262D3327E8
:100FD00027FD30958E2D9927821793072CF087EFE8
:100FE0009FEFC822D92201C06E18C3FE02C0761836
:100FF00001C07E18C60180789170892B49F4872D35
:101000007A9418162CF4B10180E290E0E4D0F7CF86
:10101000C1FE04C0B1018DE290E00BC0C4FE04C06B
:10102000B1018BE290E005C0C5FE04C0B10180E2D1
:1010300090E0D1D0C6FE0EC0B10180E390E0CBD0ED
:101040009889903139F4B101EF858E2F992787FD6A
:101050009095C1D0D0FE09C0872D7A9418162CF433
:10106000B10180E390E0B7D0F7CFC3FE09C0862D71
:101070006A9418162CF4B10180E390E0ACD0F7CF5D
:1010800090E8B92EBC2049F4872D7A9418162CF4D8
:10109000B10180E290E09FD0F7CFFF85F33639F4BD
:1010A0008E2DB101992787FD909595D03DC02F8554
:1010B0002337A9F488898150888B8F3FA9F1F701E4
:1010C00080810894E11CF11CB101992787FD90955E
:1010D00082D098899150988B9F3F89F725C0EF85E2
:1010E000E33571F4F889F150F88BFF3FE9F0F7012F
:1010F0008491B10199276FD00894E11CF11CF2CFC3
:101100006E010894C11CD11C89899A898C159D0592
:1011100059F0E989FA898291FA8BE98BB101992713
:1011200087FD909558D0F0CFBB2059F0872D7A9449
:1011300018163CF4B10180E290E04DD0F7CFB10138
:101140004AD0CC24DD2412C09F85953241F481E041
:10115000C82ED12C6624762CEAE0E88B07C0B101BA
:10116000FF858F2F992787FD909535D0F1018381D9
:1011700083FF04C0ED85FE85F49103C0ED85FE85F7
:10118000F081FF872F85222309F09ECDF101868112
:101190009781E2E162968AC0FC0105900020E9F7A0
:1011A000809590958E0F9F1F0895FC0105906150CA
:1011B00070400110D8F7809590958E0F9F1F08956D
:1011C000FC016150704001900110D8F78095909516
:1011D0008E0F9F1F08950F931F93CF93DF938C0162
:1011E000EB018B81992781FF1CC082FF0DC02E81EE
:1011F0003F818C819D812817390764F4E881F9814A
:101200000193F983E88306C0E885F985802F099565
:10121000892B39F48E819F8101969F838E83C8012B
:1012200002C08FEF9FEFDF91CF911F910F91089533
:10123000A1E21A2EAA1BBB1BFD010DC0AA1FBB1FDA
:10124000EE1FFF1FA217B307E407F50720F0A21B4C
:10125000B30BE40BF50B661F771F881F991F1A94B9
:1012600069F760957095809590959B01AC01BD01E3
:10127000CF0108952F923F924F925F926F927F928B
:101280008F929F92AF92BF92CF92DF92EF92FF9296
:101290000F931F93CF93DF93CDB7DEB7CA1BDB0B42
:1012A0000FB6F894DEBF0FBECDBF09942A883988E7
:1012B00048885F846E847D848C849B84AA84B984EE
:1012C000C884DF80EE80FD800C811B81AA81B981FA
:1012D000CE0FD11D0FB6F894DEBF0FBECDBFED010E
:0212E00008956F
:1012E20000000002000000000F02000000004E6F2C
:1012F200204572726F720A00496D70726F7065726A
:101302002041434B0A0054696D6564204F75740A8D
:101312000044697374616E6365203D2025690A008B
:00000001FF
