:100000000EC028C027C026C025C024C023C022C0DF
:1000100021C020C01FC01EC01DC0C6C002C1112407
:100020001FBECFE5D1E0DEBFCDBF10E0A0E6B0E05F
:10003000E6EEF5E003C0C89531960D92A036B10703
:10004000D1F710E0A0E6B0E001C01D92AB38B107D7
:10005000E1F741C2D5CFCF93DF93CDB7DEB7109292
:100060007400109273001092860010928500DF9148
:10007000CF910895CF93DF93CDB7DEB721970FB619
:10008000F894DEBF0FBECDBF8983E5DF8981809301
:100090006000809137008560809337008091380040
:1000A00084608093380080913800816080933800AC
:1000B000809137008E7F8093370088EA80932D00EF
:1000C00080EF80932E0021960FB6F894DEBF0FBE0E
:1000D000CDBFDF91CF910895CF93DF93CDB7DEB73A
:1000E00022970FB6F894DEBF0FBECDBF89838091F3
:1000F00085008F5F8F708A839A8180918600981720
:1001000009F4FACF8A819927F92FE82FEB58FF4F8E
:10011000898180838A818093850022960FB6F89426
:10012000DEBF0FBECDBFDF91CF910895CF93DF9398
:10013000CDB7DEB79091730080917400981709F4E1
:10014000F9CF809174008F5F8F70809374008091DD
:1001500074009927F92FE82FED59FF4F80819927D7
:10016000DF91CF910895CF93DF93CDB7DEB722977C
:100170000FB6F894DEBF0FBECDBF1A8219829091E0
:10018000730080917400981721F081E090E09A83C9
:10019000898389819A8122960FB6F894DEBF0FBEBB
:1001A000CDBFDF91CF9108951F920F920FB60F929E
:1001B00011248F939F93CF93DF93CDB7DEB7109227
:1001C000620010926100809137008E7F809337002B
:1001D00080913600992784709070009741F080914B
:1001E0003600992781709070009709F4F1CF8091C3
:1001F0003600992781709070009721F488EF8093E2
:100200002D0003C088EA80932D0080EF80932E009C
:10021000DF91CF919F918F910F900FBE0F901F9004
:1002200018951F920F920FB60F9211248F939F93E0
:10023000EF93FF93CF93DF93CDB7DEB72297DEBF67
:10024000CDBF80916100909162009A8389838981FA
:100250009A818230910509F48DC089819A81833019
:10026000910558F489819A810097C9F089819A8112
:100270008130910509F451C0BDC089819A818430D3
:10028000910509F488C089819A8184309105D0F163
:1002900089819A818530910509F48CC0ABC0809129
:1002A0002F00882349F080912F00982F96958091F8
:1002B0006000981709F01FC080912F009927817066
:1002C0009070009739F081E090E090936200809305
:1002D000610006C084E090E090936200809361002A
:1002E00010922F00809137008160809337008EE755
:1002F00080932E007FC088EA80932D0080E7809352
:100300002E0078C080912F00882339F088EA8093EE
:100310002D0080E780932E006DC090918500809124
:100320008600981789F0809186008F5F8F70809388
:100330008600809186009927F92FE82FEB58FF4F10
:10034000808180932F0007C088EA80932D0080E78A
:1003500080932E004FC082E090E0909362008093E3
:1003600061008091370081608093370080E780933F
:100370002E0040C083E090E0909362008093610083
:10038000809137008E7F8093370010922F008EE788
:1003900080932E002FC085E090E0909362008093C0
:1003A0006100809137008E7F8093370080E78093D3
:1003B0002E0020C0809173008F5F8F708093730038
:1003C000809173009927F92FE82FED59FF4F809105
:1003D0002F00808384E090E090936200809361001E
:1003E00010922F00809137008160809337008EE754
:1003F00080932E002296F894DEBFCDBFDF91CF917F
:10040000FF91EF919F918F910F900FBE0F901F90D2
:100410001895CF93DF93CDB7DEB724970FB6F89436
:10042000DEBF0FBECDBF89836A83ADD090938800B5
:10043000809387008981282F33273C832B838B81EE
:100440009C818130910501F12B813C812230310565
:100450002CF48B819C81009739F034C02B813C8136
:100460002230310521F12EC08A81882359F18091F3
:10047000870090918800282F392F820F931F909327
:100480008A00809389001EC08A818823D9F08091D8
:100490008700909188002AE030E0732F622F8DD082
:1004A000972F862F90938A00809389000BC08A81B2
:1004B000882341F0809187009091880090938A0072
:1004C0008093890024960FB6F894DEBF0FBECDBF8F
:1004D000DF91CF910895CBE5D1E0DEBFCDBF789419
:1004E00086EC809326008091260099278074907076
:1004F000009709F0F8CF809137008D7F8093370007
:1005000080913700877F8093370080913800826028
:10051000809338008091380088608093380086E2AC
:1005200089838981A7DD1FDE882359F1FFDD8A8356
:100530008A81282F33273C832B838B819C818230B7
:100540009105A9F02B813C812330310534F48B8156
:100550009C818130910539F011C02B813C81233081
:10056000310549F00BC061E080E053DF07C061E076
:1005700081E04FDF03C061E082E04BDF80918900C2
:10058000ABDD0000D0CFCF93DF93CDB7DEB782EBEA
:100590008093270080EC809326000000000080916B
:1005A0002600992780749070009709F0F8CF809109
:1005B00025009927DF91CF910895AA1BBB1B51E11C
:1005C00007C0AA1FBB1FA617B70710F0A61BB70BC3
:1005D000881F991F5A95A9F780959095682F792FB4
:0605E0008A2F9B2F0895F5
:00000001FF
